:040000008CEF03F08E
:0B0600000058696E206368616F000005
:10060C00000EAC6E000EAB6E000E77EC03F0000E1D
:10061C0070EC03F0000E64EC03F0010E7EEC03F0C2
:10062C00000E85EC03F0010E016E000E58EC03F089
:10063C00110E9CEC03F0A0EC03F01200000E956E72
:10064C0006EC03F0010E026E060E036E3FEC03F097
:10065C00A3EC03F0046E05D0000E8C6EF9D78C68F9
:10066C00F7D70450610AD8B4F7D7030AD8B4F7D730
:10067C00EFD792EC03F00009D8A4FBD702C0F6FF29
:10068C0003C0F7FF0800F55098EC03F002C0F6FF2A
:10069C0003C0F7FF024A032A0800F5500009D8B43A
:1006AC001200E7D7026E02B002D09E9801D09E884D
:1006BC0001B002D09E9A01D09E8A1200016E01B048
:1006CC0002D0AC9C01D0AC8C01B002D0AB9C01D060
:1006DC00AB8C1200016E01B002D0AC9E01D0AC8E7E
:1006EC001200016E01B002D0AC9801D0AC8812009F
:1006FC00016E01B002D0AB9801D0AB881200016E34
:10070C0001B002D0AC9401D0AC841200046A000E8B
:10071C00F86E000124EF03F0ACB202D0010E12000F
:10072C00000E1200016E01C0ADFF1200016E01C07F
:0E073C00AFFF1200AC8AAB8E1200AE5012005E
:020000040020DA
:08000000FFFFFFFFFFFFFFFF00
:020000040030CA
:0E000000FF02191EFF8185FF0FC00FE00F40A9
:00000001FF
