:040000005CEF04F0BD
:0B0600000058696E206368616F000005
:10060C0095969598959A959C959095929594480E5B
:10061C00466ECF0EE82EFED7462EFCD700F0300EDD
:10062C0051EC03F0480E466ECF0EE82EFED7462E48
:10063C00FCD700F0300E51EC03F0480E466ECF0E96
:10064C00E82EFED7462EFCD700F0300E51EC03F00E
:10065C00480E466ECF0EE82EFED7462EFCD700F085
:10066C00200E51EC03F0280E8AEC04F00C0E8AECF0
:10067C0004F0060E8AEC04F0010E8AEC04F0020E73
:10068C008AEC04F0B40E466E870EE82EFED7462E8A
:10069C00FCD700F01200436E43C041F0413A0F0EFC
:1006AC004116010E41164146414641468C504118B7
:1006BC00F70B41188C6E43C041F0050E426ED8907A
:1006CC004132422EFCD7010E4116413A8C50411852
:1006DC00EF0B41188C6E43C041F0060E426ED89061
:1006EC004132422EFCD7010E4116413A41468C5004
:1006FC004118DF0B41188C6E416A43AE01D0412A80
:10070C00010E4116413A414641468C504118BF0BEF
:10071C0041188C6E8C84090EE82EFED78C942E0E0C
:10072C00E82EFED7120014D046C0F6FF47C0F7FFE4
:10073C00F86A050EF76403D00800F55005D0F6CF23
:10074C00E9FFF7CFEAFFEF5083EC04F0464A472A63
:10075C0046C0F6FF47C0F7FFF86A050EF76403D0F2
:10076C000800F55005D0F6CFE9FFF7CFEAFFEF50C0
:10077C000009D8B41200D8D7476E4604D8A404D0C8
:10078C004750800F8AEC04F0020E4618D8A404D00F
:10079C004750C00F8AEC04F0030E4618D8A404D0BE
:1007AC004750940F8AEC04F0040E4618D8A412009B
:1007BC004750D40F8AEC04F0120006EC03F001EC65
:1007CC0004F0010E466E060E476E99EC03F0010E16
:1007DC00416E000E426E100E436E1FEC04F0020EC2
:1007EC00466E000EC2EC03F0010E466E000E476E14
:1007FC0099EC03F0ECD7000EAC6E000EAB6E000E55
:10080C006EEC04F0000E67EC04F0000E44EC04F007
:10081C00010E75EC04F0000E7CEC04F0010E416E40
:10082C00000E38EC04F0110E97EC04F09BEC04F085
:10083C001200000E456E11D091EC04F00009D8B4F2
:10084C00FBD79EEC04F0446E41C0D9FF42C0DAFFE6
:10085C0044C0DFFF414A422A452A4350455CD8B088
:10086C001200EAD7426E42B002D09E9801D09E8808
:10087C0041B002D09E9A01D09E8A1200416E41B0C6
:10088C0002D0AC9C01D0AC8C41B002D0AB9C01D05E
:10089C00AB8C1200446E445051EC03F04438F00B16
:1008AC0051EC03F0090EE82EFED7120000EE01F019
:1008BC00400EEE6AE806FDE1000EF86E0001E3EF73
:1008CC0003F0416E41B002D0AC9E01D0AC8E120050
:1008DC00416E41B002D0AC9801D0AC881200416E90
:1008EC0041B002D0AB9801D0AB881200416E41B040
:1008FC0002D0AC9401D0AC841200456E8C808C92EA
:10090C00455050EC04F01200456E8C908C92455082
:10091C0050EC04F012009EAA02D0010E1200000E40
:10092C001200416E41C0AFFF1200AC8AAB8E1200B8
:04093C00AE501200A7
:020000040020DA
:08000000FFFFFFFFFFFFFFFF00
:020000040030CA
:0E000000FF02191EFF8185FF0FC00FE00F40A9
:00000001FF
