:04000000DDEF06F03A
:100600000001000A006400E8031027444F20414421
:0B061000430025302E3464000A000077
:10061C00690E6F6E000E706E70D1250E7718D8B4FF
:10062C0009D065C0D9FF66C0DAFF77C0DFFF654A25
:10063C00662A63D1000E756E000E746E000E716E1C
:10064C0003D07184674A682A67C0F6FF68C0F7FF59
:10065C000800F550300AD8B4F4D767C0F6FF68C06C
:10066C00F7FF0800F5509EEC06F0D8A032D0000E33
:10067C00756E000E746E74C059F075C05AF0000E91
:10068C005C6E0A0E5B6E8BEC06F059C074F05AC0AF
:10069C0075F0D00E6B6EFF0E6C6E67C0F6FF68C007
:1006AC00F7FF0800F5506D6E6E6A6B506D266C503E
:1006BC006E226D5074266E507522674A682A67C088
:1006CC00F6FF68C0F7FF0800F5509EEC06F0D8B0B6
:1006DC00D2D767C0F6FF68C0F7FF0800F5502E0AA6
:1006EC00D8A41FD0674A682A000E766E0FD067C058
:1006FC00F6FF68C0F7FF0800F5CF6BF076500A0DD7
:10070C00F3506B24D00F766E674A682A67C0F6FFE9
:10071C0068C0F7FF0800F5509EEC06F0D8A003D097
:10072C00E6D7000E766E67C0F6FF68C0F7FF674A23
:10073C00682A0800F5CF77F07750000AD8B4E9D0D2
:10074C00640AD8B403D00D0AD8A4D7D06FC0D9FF8F
:10075C0070C0DAFFDECF72F0DDCF73F0020E6F26C1
:10076C00000E702273AE06D0030E7112726C731EE3
:10077C00D8B0732A7650D8A404D072507310D8B461
:10078C00762A010E776E050E7718D8B412D07750F2
:10079C00020D010EF324F66E060EF420F76E09001E
:1007AC00F550725C0900F5507358D8A002D0772A26
:1007BC00EAD77750800A6B6E7650800A6B5CD8B0A3
:1007CC0003D076C077F009D07650800A6B6E7750E4
:1007DC00800A6B5CD8A077C076F074507510D8B4D2
:1007EC0009D071C06BF0030E6B16D8B403D074062D
:1007FC00D8A07506800E77BE7F0E6B6E7450775C3A
:10080C007550800A6B58D8B007D07750745E000EC4
:10081C0077BEFF0E755A04D0000E756E000E746E06
:10082C0071A41ED071C06BF0030E6B16D8B408D037
:10083C0065C0D9FF66C0DAFF2D0EDF6E654A662AE9
:10084C0074507510D8B455D065C0D9FF66C0DAFFA6
:10085C00300EDF6E654A662A7406D8A07506F0D78E
:10086C0074507510D8B40FD065C0D9FF66C0DAFFCC
:10087C00200EDF6E654A662A7406D8A07506745081
:10088C007510D8A4F1D771C06BF0030E6B16D8B4E9
:10089C0030D065C0D9FF66C0DAFF2D0EDF6E27D0D1
:1008AC007650020D010EF324F66E060EF420F76E50
:1008BC000900F5CF5BF00A00F5CF5CF072C059F07F
:1008CC0073C05AF09FEC05F059C060F05AC061F04B
:1008DC00000E636E0A0E626EF1EC05F06050300F84
:1008EC00776E65C0D9FF66C0DAFF77C0DFFF654A57
:1008FC00662A76067628D8A4D3D767C0F6FF68C0D8
:10090C00F7FF674A682A0800F5CF77F07750D8A42C
:10091C0084D665C0D9FF66C0DAFF000EDF6E120008
:10092C0095969598959A959C959095929594480E38
:10093C005E6ECF0EE82EFED75E2EFCD700F0300E8A
:10094C00E1EC04F0480E5E6ECF0EE82EFED75E2E64
:10095C00FCD700F0300EE1EC04F0480E5E6ECF0ECA
:10096C00E82EFED75E2EFCD700F0300EE1EC04F042
:10097C00480E5E6ECF0EE82EFED75E2EFCD700F032
:10098C00200EE1EC04F0280E28EC07F00C0E28ECFD
:10099C0007F0060E28EC07F0010E28EC07F0020E0B
:1009AC0028EC07F0B40E5E6E870EE82EFED75E2E96
:1009BC00FCD700F012005B6E5BC059F0593A0F0E79
:1009CC005916010E59165946594659468C50591804
:1009DC00F70B59188C6E5BC059F0050E5A6ED890F7
:1009EC0059325A2EFCD7010E5916593A8C505918B7
:1009FC00EF0B59188C6E5BC059F0060E5A6ED890DE
:100A0C0059325A2EFCD7010E5916593A59468C5068
:100A1C005918DF0B59188C6E596A5BAE01D0592AE4
:100A2C00010E5916593A594659468C505918BF0B54
:100A3C0059188C6E8C84090EE82EFED78C942E0ED1
:100A4C00E82EFED7120096EC04F054EC06F072EC93
:100A5C0006F00B0E5E6E060E5F6EC8EC05F0000E17
:100A6C0033EC06F05BC001F05CC002F0030E656E67
:100A7C00000E666E120E676E060E686E01C069F08F
:100A8C0002C06AF00EEC03F0020E5E6E000E12EC69
:100A9C0006F0030E5E6E000E5F6EC8EC05F0030EE2
:100AAC005A6E000E5B6E6EEC05F0180E5A6E060E4A
:100ABC005B6E6EEC05F0050E796E360E786E2C0EB4
:100ACC00E82EFED7782EFCD7792EFAD700D0C7D7D0
:100ADC0044EC07F00009D8A4FBD75AC0F6FF5BC062
:100AEC00F7FFF86A050EF76403D00800F55005D03F
:100AFC00F6CFE9FFF7CFEAFFEF5050EC07F05A5072
:100B0C005C6E5B505D6E5A4A5B2A5CC0F6FF5DC042
:100B1C00F7FFF86A050EF76403D00800F55005D00E
:100B2C00F6CFE9FFF7CFEAFFEF500009D8B4120077
:100B3C00CFD7000E5E6E000E5D6E5B505C10D8B4AD
:100B4C001CD0010E5F6E04D0D8905B365C365F2AE9
:100B5C005CAEFAD7D8905D365E365B50595C5C5013
:100B6C005A58D8A005D05B50595E5C505A5A5D80DB
:100B7C00D8905C325B325F2EEDD75DC059F05EC011
:100B8C005AF0120014D05EC0F6FF5FC0F7FFF86A8F
:100B9C00050EF76403D00800F55005D0F6CFE9FF39
:100BAC00F7CFEAFFEF5021EC07F05E4A5F2A5EC0F8
:100BBC00F6FF5FC0F7FFF86A050EF76403D0080074
:100BCC00F55005D0F6CFE9FFF7CFEAFFEF5000095B
:100BDC00D8B41200D8D762506310D8B418D0010E14
:100BEC00646E04D0D89062366336642A63AEFAD74A
:100BFC006250605C63506158D8A004D06250605E53
:100C0C006350615AD89063326232642EF1D760C05F
:100C1C0060F061C061F012005F6E5E04D8A404D075
:100C2C005F50800F28EC07F0020E5E18D8A404D099
:100C3C005F50C00F28EC07F0030E5E18D8A404D048
:100C4C005F50940F28EC07F0040E5E18D8A4120025
:100C5C005F50D40F28EC07F01200656E6550E8EC7D
:100C6C0006F05EEC07F04AEC07F00009D8A4FBD7BD
:100C7C00C4CF5FF0606AC3CF61F0626A5F505E6E92
:100C8C005D6A61505D24636E62505E20646E5BEC45
:100C9C0007F063C05BF064C05CF01200000EAC6E39
:100CAC00000EAB6E000E0CEC07F0000E05EC07F01E
:100CBC00000EB9EC06F0010E13EC07F0000E1AEC66
:100CCC0007F0010E596E000EADEC06F0110E54EC4F
:100CDC0007F058EC07F01200000EC26E000EC16E49
:100CEC00000EC06E050E3DEC07F0010ED1EC06F0C7
:100CFC00010E2FEC07F0000EF3EC06F0000EFDECED
:100D0C0006F00E0E36EC07F0120059505B02F3CFD2
:100D1C005DF0F4CF5EF059505C02F3505E265A50F1
:100D2C005B02F3505E265DC059F05EC05AF01200B3
:100D3C005B6E000E5A6E3A0E5B6005D02F0E5B6434
:100D4C0002D0010E5A6E5AC059F0593012005A6E28
:100D5C005AB002D09E9801D09E8859B002D09E9A6B
:100D6C0001D09E8A1200596E59B002D0AC9C01D0B1
:100D7C00AC8C59B002D0AB9C01D0AB8C12005C6E29
:100D8C005C50E1EC04F05C38F00BE1EC04F0090E83
:100D9C00E82EFED712005A6E5AC059F059465946E1
:100DAC005946C0505918C70B5918C06E120000EEA6
:100DBC0001F0580EEE6AE806FDE1000EF86E000137
:100DCC0029EF05F05A6E5AC059F059465946C2508F
:100DDC005918C30B5918C26E12005A6E5AC059F0EA
:100DEC00593AC1505918CF0B5918C16E1200596E8F
:100DFC0059B002D09D9C01D09D8CF28C1200596E82
:100E0C0059B002D0AC9E01D0AC8E1200596E59B0C4
:100E1C0002D0AC9801D0AC881200596E59B002D0F7
:100E2C00AB9801D0AB881200596E59B002D0AC947B
:100E3C0001D0AC8412005D6E8C808C925D50C5EC40
:100E4C0006F012005D6E8C908C925D50C5EC06F035
:100E5C001200596E59B002D0C09E01D0C08E120043
:100E6C00596EC1505918F00B5918C16E1200596EB9
:100E7C00C0505918F80B5918C06E1200ACB202D001
:100E8C00010E1200000E1200C2A202D0010E1200BE
:100E9C00000E1200596E59C0ADFF1200596E59C0A8
:100EAC00AFFF1200AC8AAB8E1200C290C29212003D
:060EBC00C280C282120098
:020000040020DA
:08000000FFFFFFFFFFFFFFFF00
:020000040030CA
:0E000000FF02191EFF8185FF0FC00FE00F40A9
:00000001FF
