:04000000FAEF07F01C
:100600000001000A006400E8031027444F20414421
:09061000430025302E3464000083
:10061A00110E176E000E186E70D1250E1F18D8B461
:10062A0009D00DC0D9FF0EC0DAFF1FC0DFFF0D4A87
:10063A000E2A63D1000E1D6E000E1C6E000E196E7E
:10064A0003D019840F4A102A0FC0F6FF10C0F7FF13
:10065A000800F550300AD8B4F4D70FC0F6FF10C01E
:10066A00F7FF0800F5500AEC08F0D8A032D0000EC7
:10067A001D6E000E1C6E1CC001F01DC002F0000EA3
:10068A00046E0A0E036ED5EC07F001C01CF002C01E
:10069A001DF0D00E136EFF0E146E0FC0F6FF10C0C1
:1006AA00F7FF0800F550156E166A135015261450F8
:1006BA00162215501C2616501D220F4A102A0FC04A
:1006CA00F6FF10C0F7FF0800F5500AEC08F0D8B0A2
:1006DA00D2D70FC0F6FF10C0F7FF0800F5502E0A58
:1006EA00D8A41FD00F4A102A000E1E6E0FD00FC0BA
:1006FA00F6FF10C0F7FF0800F5CF13F01E500A0DE1
:10070A00F3501324D00F1E6E0F4A102A0FC0F6FFA3
:10071A0010C0F7FF0800F5500AEC08F0D8A003D083
:10072A00E6D7000E1E6E0FC0F6FF10C0F7FF0F4A85
:10073A00102A0800F5CF1FF01F50000AD8B4E9D0DC
:10074A00640AD8B403D00D0AD8A4D7D017C0D9FFE9
:10075A0018C0DAFFDECF1AF0DDCF1BF0020E172623
:10076A00000E18221BAE06D0030E19121A6C1B1E9D
:10077A00D8B01B2A1E50D8A404D01A501B10D8B4C3
:10078A001E2A010E1F6E050E1F18D8B412D01F5054
:10079A00020D010EF324F66E060EF420F76E090020
:1007AA00F5501A5C0900F5501B58D8A002D01F2A30
:1007BA00EAD71F50800A136E1E50800A135CD8B005
:1007CA0003D01EC01FF009D01E50800A136E1F509E
:1007DA00800A135CD8A01FC01EF01C501D10D8B48C
:1007EA0009D019C013F0030E1316D8B403D01C068F
:1007FA00D8A01D06800E1FBE7F0E136E1C501F5CF4
:10080A001D50800A1358D8B007D01F501C5E000E26
:10081A001FBEFF0E1D5A04D0000E1D6E000E1C6E68
:10082A0019A41ED019C013F0030E1316D8B408D099
:10083A000DC0D9FF0EC0DAFF2D0EDF6E0D4A0E2A4B
:10084A001C501D10D8B455D00DC0D9FF0EC0DAFF08
:10085A00300EDF6E0D4A0E2A1C06D8A01D06F0D7F0
:10086A001C501D10D8B40FD00DC0D9FF0EC0DAFF2E
:10087A00200EDF6E0D4A0E2A1C06D8A01D061C503B
:10088A001D10D8A4F1D719C013F0030E1316D8B44B
:10089A0030D00DC0D9FF0EC0DAFF2D0EDF6E27D083
:1008AA001E50020D010EF324F66E060EF420F76EAA
:1008BA000900F5CF03F00A00F5CF04F01AC001F0E1
:1008CA001BC002F0D3EC06F001C008F002C009F028
:1008DA00000E0B6E0A0E0A6E25EC07F00850300F58
:1008EA001F6E0DC0D9FF0EC0DAFF1FC0DFFF0D4A11
:1008FA000E2A1E061E28D8A4D3D70FC0F6FF10C092
:10090A00F7FF0F4A102A0800F5CF1FF01F50D8A48E
:10091A0084D60DC0D9FF0EC0DAFF000EDF6E1200BA
:10092A001DC021F0226A236A1C34213601E3228089
:10093A002150246E2450D8A407D0000E1B6E000E3E
:10094A001C6E000E1D6E120020C021F0226A236A5E
:10095A001F34213601E322802150296E2950D8A460
:10096A0007D0000E1B6E000E1C6E000E1D6E1200CC
:10097A0029507B0F24261DC029F02050291A800EE9
:10098A0029161C8E1F8EFF0E1E16FF0E1F16000E36
:10099A002016000E256E000E266E000E276E070E1C
:1009AA00286E1BA006D01E5025261F502622205036
:1009BA002722D8901D321C321B32D8901E361F3681
:1009CA002036282EEED7090E286E1BA006D01E5000
:1009DA0025261F50262220502722D8901D321C324D
:1009EA001B32D890273226322532282EEED725C040
:1009FA0001F026C002F027C003F024C004F029C089
:100A0A0005F0E9EC05F001C01BF002C01CF003C0C0
:100A1A001DF012000EC012F0136A146A0D34123659
:100A2A0001E313801250196E1950D8A407D0000E92
:100A3A000C6E000E0D6E000E0E6E120011C012F03A
:100A4A00136A146A1034123601E3138012501A6EB4
:100A5A001A50D8A407D0000E0C6E000E0D6E000EB0
:100A6A000E6E1200000E166E000E176E000E186E35
:100A7A001A50890F195E0EC01AF011501A1A800EF8
:100A8A001A160D8EFF0E0C16FF0E0D16000E0E1600
:100A9A00108EFF0E0F16FF0E1016000E1116180EEE
:100AAA00156ED8901636173618360F500C5C105043
:100ABA000D5811500E58D8A007D00F500C5E105088
:100ACA000D5A11500E5A1680D8900C360D360E3625
:100ADA00152EE7D716C001F017C002F018C003F0B0
:100AEA0019C004F01AC005F0E9EC05F001C00CF0D9
:100AFA0002C00DF003C00EF0120040EC06F088ECC4
:100B0A0007F0A6EC07F00B0E066E060E076EFCEC5D
:100B1A0006F0000E67EC07F003C02FF004C030F0B7
:100B2A00C00E0F6E7F0E106E440E116E2FC009F0AC
:100B3A0030C00AF0E8EC07F009C00CF00AC00DF06A
:100B4A000BC00EF00FEC05F00CC01BF00DC01CF032
:100B5A000EC01DF0000E1E6EA00E1F6E400E206EFF
:100B6A0095EC04F01BC02CF01CC02DF01DC02EF01B
:100B7A00800E0D6E000E0E6E120E0F6E060E106EA9
:100B8A002FC011F030C012F00DEC03F0020E066E09
:100B9A00000E46EC07F0800E066E000E076EFCECA7
:100BAA0006F0800E026E000E036EBFEC07F00F0E09
:100BBA002B6E070E2A6E9A0EE82EFED72A2EFCD727
:100BCA002B2EFAD700D0A5D70450D8B405D001509F
:100BDA0002100310D8A40CD0000E016E000E026E93
:100BEA00000E036E1200042AD89003320232013238
:100BFA00000E0114066E000E0214076EFE0E031498
:100C0A00086E065007100810D8B40CD0ECD7042A86
:100C1A00010E0126000E0222000E0322D890033292
:100C2A0002320132000E0114066E000E0214076E23
:100C3A00FF0E0314086E065007100810D8B406D029
:100C4A00E6D70406D89001360236033602BE03D030
:100C5A00020E0460F6D704A0029ED8900432045013
:100C6A0003120550D8A4038E01C001F002C002F09D
:100C7A0003C003F0120095969598959A959C9590C5
:100C8A0095929594480E066ECF0EE82EFED7062E44
:100C9A00FCD700F0300E8BEC06F0480E066ECF0E35
:100CAA00E82EFED7062EFCD700F0300E8BEC06F0AD
:100CBA00480E066ECF0EE82EFED7062EFCD700F0A1
:100CCA00300E8BEC06F0480E066ECF0EE82EFED7DD
:100CDA00062EFCD700F0200E8BEC06F0280E89ECCD
:100CEA0008F00C0E89EC08F0060E89EC08F0010EEB
:100CFA0089EC08F0020E89EC08F0B40E066E870E35
:100D0A00E82EFED7062EFCD700F01200036E03C0B1
:100D1A0001F0013A0F0E0116010E011601460146B5
:100D2A0001468C500118F70B01188C6E03C001F0B4
:100D3A00050E026ED8900132022EFCD7010E011662
:100D4A00013A8C500118EF0B01188C6E03C001F0A8
:100D5A00060E026ED8900132022EFCD7010E011641
:100D6A00013A01468C500118DF0B01188C6E016A9A
:100D7A0003AE01D0012A010E0116013A01460146CD
:100D8A008C500118BF0B01188C6E8C84090EE82E4A
:100D9A00FED78C942E0EE82EFED71200000E066E99
:100DAA00000E056E03500410D8B41CD0010E076E55
:100DBA0004D0D89003360436072A04AEFAD7D8905E
:100DCA00053606360350015C04500258D8A005D0F7
:100DDA000350015E0450025A0580D890043203324F
:100DEA00072EEDD705C001F006C002F0120014D09C
:100DFA0006C0F6FF07C0F7FFF86A050EF76403D0CE
:100E0A000800F55005D0F6CFE9FFF7CFEAFFEF501B
:100E1A0082EC08F0064A072A06C0F6FF07C0F7FF69
:100E2A00F86A050EF76403D00800F55005D0F6CF2E
:100E3A00E9FFF7CFEAFFEF500009D8B41200D8D77C
:100E4A000A500B10D8B418D0010E0C6E04D0D890EA
:100E5A000A360B360C2A0BAEFAD70A50085C0B502E
:100E6A000958D8A004D00A50085E0B50095AD890E5
:100E7A000B320A320C2EF1D708C008F009C009F06B
:100E8A001200076E0604D8A404D00750800F89EC1C
:100E9A0008F0020E0618D8A404D00750C00F89EC37
:100EAA0008F0030E0618D8A404D00750940F89EC52
:100EBA0008F0040E0618D8A412000750D40F89ECC3
:100ECA0008F012000D6E0D5049EC08F0BFEC08F066
:100EDA00ABEC08F00009D8A4FBD7C4CF07F0086A26
:100EEA00C3CF09F00A6A0750066E056A095005243D
:100EFA000B6E0A5006200C6EBCEC08F00BC003F017
:100F0A000CC004F01200000EAC6E000EAB6E000EA8
:100F1A006DEC08F0000E66EC08F0000E25EC08F007
:100F2A00010E74EC08F0000E7BEC08F0010E016E65
:100F3A00000E19EC08F0110EB5EC08F0B9EC08F047
:100F4A001200000EC26E000EC16E000EC06E050EBB
:100F5A009EEC08F0010E3DEC08F0010E90EC08F052
:100F6A00000E54EC08F0000E5EEC08F00E0E97EC42
:100F7A0008F01200A5EC08F00009D8A4FBD702C0BB
:100F8A00D9FF03C0DAFFDF50B1EC08F002C0D9FF85
:100F9A0003C0DAFF024A032ADF50D8B41200EAD7A4
:100FAA0001500302F3CF05F0F4CF06F0015004021A
:100FBA00F350062602500302F350062605C001F03C
:100FCA0006C002F0120009C001F00AC002F0036A6A
:100FDA008E0E046E000E056EE9EC05F001C009F0F4
:100FEA0002C00AF003C00BF0120000EE80F0560EA9
:100FFA00EE6AE806FDE1306A2F6A2E6A2D6A2C6ACB
:10100A00000EF86E000182EF05F0036E000E026E0C
:10101A003A0E036005D02F0E036402D0010E026E51
:10102A0002C001F001301200026E02B002D09E9896
:10103A0001D09E8801B002D09E9A01D09E8A1200E9
:10104A00016E01B002D0AC9C01D0AC8C01B002D0D0
:10105A00AB9C01D0AB8C1200046E04508BEC06F0F2
:10106A000438F00B8BEC06F0090EE82EFED71200BE
:10107A00026E02C001F0014601460146C050011845
:10108A00C70B0118C06E1200026E02C001F00146C1
:10109A000146C2500118C30B0118C26E1200026E3B
:1010AA0002C001F0013AC1500118CF0B0118C16EFC
:1010BA001200016E01B002D09D9C01D09D8CF28C71
:1010CA001200016E01B002D0AC9E01D0AC8E1200AB
:1010DA00016E01B002D0AC9801D0AC881200016E4A
:1010EA0001B002D0AB9801D0AB881200016E01B0FA
:1010FA0002D0AC9401D0AC841200056E8C808C9224
:10110A00055031EC08F01200056E8C908C92055057
:10111A0031EC08F01200016E01B002D0C09E01D07D
:10112A00C08E1200016EC1500118F00B0118C16E79
:10113A001200016EC0500118F80B0118C06E12009F
:10114A00ACB202D0010E1200000E1200C2A202D0EE
:10115A00010E1200000E1200016E01C0ADFF120056
:10116A00016E01C0AFFF1200AC8AAB8E1200C290B2
:0A117A00C2921200C280C28212006D
:020000040020DA
:08000000FFFFFFFFFFFFFFFF00
:020000040030CA
:0E000000FF02191EFF8185FF0FC00FE00F40A9
:00000001FF
